:100000000C94DA040C94F7040C94F7040C942A2C46
:100010000C94F7040C94F7040C94F7040C94F70474
:100020000C94F7040C94F7040C9461160C941D16B0
:100030000C9482240C94F7040C94F7040C94F704A9
:100040000C94F7040C94F7040C94F7040C94F70444
:100050000C94F7040C943A170C94F7040C94F704DE
:100060000C94F7040C94F7040C94F7040C94F70424
:100070000C94F7040C94F7040C94F7040C94F70414
:100080000C94F7040C94F7040C94F7040C94F70404
:100090000C94F7040C94F7040C94F7040C94F704F4
:1000A0000C94F7040C94F7040C94F704050109026E
:1000B000A10185020901A1000509190129081500FE
:1000C0002501950875018102050109300931158165
:1000D000257F95027508810609381581257F9501D0
:1000E00075088106050C0A38021581257F95017572
:1000F000088106C0C00660FF0961A1010962150000
:1001000026FF009520750881020963150026FF006F
:10011000952075089102C005010906A1010507197E
:10012000E029E71500250195087501810295017503
:100130000881010507190029FF150026FF00950613
:100140007508810005081901290515002501950587
:1001500075019102950175039101C0000000000036
:10016000000000000000000000000000000000008F
:100170000000000000000000000000000000007E01
:100180000F00D4FFFFFFC700000078000000000050
:100190000000002A2B2800000000000000000000E2
:1001A00000000000000029000000002C1E34202167
:1001B0002224342627252E362D3738271E1F2021AE
:1001C00022232425263333362E37381F040506070D
:1001D00008090A0B0C0D0E0F101112131415161727
:1001E00018191A1B1C1D2F3130232D350405060745
:1001F00008090A0B0C0D0E0F101112131415161707
:1002000018191A1B1C1D2F3130354C61626364654F
:10021000666768696A6B6C6D6E6F70717273747506
:10022000767778797A313233343536373839305217
:100230004542545F2D3D5B5D5C233B27602C2E2F98
:1002400000DA0281FFD9F1DB20A4A62EAF00A0C006
:10025000D30000A1C8D30000AED580A81F408D14E4
:10026000200000AF00AE202000BABB004B65792013
:10027000B10020C0C100BEBF00484F00565400303E
:1002800030200020202020B1BCBD0042616C6CB148
:1002900000B4B500B2B300C2C3004CB6B772B1002F
:1002A00020200014001A00080015001700000004A8
:1002B000001600070009000A0000001D001B0006D0
:1002C00000190005000000E000E300E20091222C8C
:1002D000419043130012000C0018001C0000002D78
:1002E000000F000E000D000B000000380037003634
:1002F00000100011000000E500E700E60091222850
:10030000422A003A003B003C003D00300000003E25
:10031000001E0223028902250200002E022F022461
:10032000021F023002000087002E0020020100019F
:1003300000010043004200410040003F0000003344
:1003400000D2004B00D100870200004400D3004ED1
:100350000021022F0000004500E700E60001000038
:100360005202522B002400250026002D00000034EC
:10037000022100220023003302000038001E001F6B
:100380000020002D0200002900270037004C002823
:10039000002A002A000100D30001003200000034CE
:1003A00000D2005200D1002602000001004F00518F
:1003B00000500032020000010001000100010001B4
:1003C00000010020780A7E0B7E0C7E0100000021D7
:1003D00078237825782778087E00002278247826EC
:1003E000782878097E0000007C007E010001000171
:1003F0000001000F7E0D7E0E7E0100010000000155
:100400000001000100010001000000017E047E02E5
:100410007E037E057E0000007C007E01000100015D
:1004200000010001000100010001000100000001C5
:1004300000010001000100010000000100010001B5
:1004400000010001000000010001000100010001A5
:100450000001000100010001000100010000000195
:100460000001000100010001000000010001000185
:100470000001000100000001000100010001000175
:100480000001000100010001000100010000000165
:100490000001000100010001000000010001000155
:1004A0000001000100000001000100010001000145
:1004B0000001000100010001000100010000000135
:1004C0000001000100010001000000010001000125
:1004D0000001000100000001000100010001000115
:1004E0000001000100010001000100010000000105
:1004F00000010001000100010000000100010001F5
:1005000000010001000000010001000100010001E4
:1005100000010001000100010001000100000001D4
:1005200000010001000100010000000100010001C4
:1005300000010001000000010001000100010001B4
:1005400000010009025B00030100A0FA0904000099
:1005500001030101000921110100012244000705E6
:1005600081030800010904010002030000000921C1
:100570001101000122220007058203200001070566
:100580000303200001090402000103000000092107
:100590001101000122490007058403200001120116
:1005A000000200000008575900020001010200018A
:1005B00014034B0065007900620061006C006C0060
:1005C000330039000000100359006F0077006B0002
:1005D00065006500730000000403090400000000CA
:1005E000000000002F000000000700070000123F7D
:1005F000123F1200242A7F2A120036091E241B00F3
:10060000182629122800000007000000001E2140C3
:1006100000000040211E000014083E0814000808D5
:100620003E080800000030700000080808080800B4
:1006300000003030000020100C0201001E2925238C
:100640001E0000223F20000022312929260012210D
:1006500025251A001814123F10001725252518000B
:100660001E25252518000131090503001A25252519
:100670001A00062929291E0000003333000000005B
:1006800033730000081414222200141414141400EC
:100690002222141408000201290502003E59555D6A
:1006A0003E003816111638003F2525251A001E2158
:1006B000212112003F2121211E003F252525210057
:1006C0003F09090901001E2121291A003F040404E1
:1006D0003F0000213F210000102020201F003F0488
:1006E0000C1221003F20202020003F0204023F0086
:1006F0003F020C103F001E2121211E003F09090965
:1007000006001E2129112E003F0909192600122575
:100710002529120001013F0101001F2020201F0098
:100720000718201807000F300C300F0021120C1290
:100730002100030438040300312925232100007F10
:100740004141000001020C1020000041417F0000E7
:100750000402010204004040404040000001030444
:100760000000102A2A2A3C003F2422221C001C22BE
:10077000222224001C2222243F001C2A2A2A0C00A8
:1007800000043E0505000C5252543E003F0804048C
:10079000380000003D0000002040403D00003F08C0
:1007A0000814220000013F2000003E023C023C00F1
:1007B0003E0402023C001C2222221C007E14222243
:1007C0001C001C2222147E003E0402020400242A83
:1007D0002A2A120000021F2200001E2020103E00C4
:1007E0000618201806000E300C300E0022140814D3
:1007F00022000E5050483E0022322A2622000808CD
:100800007741410000007F00000041417708080067
:10081000180408100C000000000000000000000098
:100820000000000000000000C0F0F88C86C6E7FF62
:10083000FFFFFFFFFFFEFCFCF8E080000000F0F08F
:10084000F00000C0E0F07070000000000000000048
:100850000000000000000000000000000000F8F8A8
:10086000F800000000000000000000000000000090
:1008700000000000F8F8F80000F8F8F800000000A8
:100880000080E07078686C64C7C7C7C7C7C7E73F18
:100890001F0F3FFFFFFFFFFFFF3F0F000000FFFFA5
:1008A000FF1E3FFFF3E1800000F8FCFE3636363EC7
:1008B000BCB8000E3EFEF080F0FE3E0E0000FFFFD2
:1008C000FF060606FEFEFC7000E6F6F63636FEFE75
:1008D000FC000000FFFFFF0000FFFFFF0000000022
:1008E0003C7F6360E0C0C0C0C0C0C0C0C0FFFFC0EC
:1008F0006030180F03030301000000000000030331
:1009000003000000030303030001030303030303C5
:100910000301007070393F1F070100000000010350
:1009200003030303030301000001030303030303A1
:100930000100000003030300000303030010101074
:1009400000000000550000003E635D5D637F417B59
:1009500077413E00001C22221C003E0A003E0A0095
:10096000322A3C0026281E001C2A2C0000003F09C9
:10097000360000001E212100000000003F08370063
:100980001E2121001E2121003F090600213F2100D8
:10099000222519001E2121003F0936003F211E009B
:1009A000213F21000F300F003E093E003F063F006F
:1009B0003F20200011241FBECFEFDAE0DEBFCDBF05
:1009C00011E0A0E0B1E0ECEFFCE502C005900D9273
:1009D000A63CB107D9F725E0A6ECB1E001C01D9215
:1009E000AD33B207E1F70E94A9240C94432E0C9476
:1009F0000000482F20912F039091F60257E0291311
:100A000002C080E0089530E0529FF001539FF00D46
:100A10001124E950FD4F8181681306C0808148137D
:100A200003C085818111EECF2F5F3F4F2770E7CF45
:100A3000E8EDF0E080818E7F80831092E2001092DA
:100A4000DA001092E100A0EEB0E08C9181608C930E
:100A500080818F77808319BCA7EDB0E08C918E7F69
:100A60008C9380818F7E80831092D802089520918C
:100A7000E4003091E50095E6A9012091EC00822F79
:100A8000817020FF06C08091E80080FF06C080E0F2
:100A900008952091E80022FD1AC08091EC0288237D
:100AA00089F0853089F08091EB0085FD0FC02091A1
:100AB000E4003091E50042175307F9F29150E1F656
:100AC00084E0089582E0089583E0089581E0089528
:100AD0008091EE0287FF13C08091E80082FF06C07C
:100AE0008091E8008B778093E80004C08091EC024D
:100AF0008111F2CF08958091EC028823D9F380917F
:100B0000E80080FFF8CF8091E8008E77ECCF982F37
:100B10009093E900242F762F50E0891731F07091DF
:100B2000EC002091ED005091F00021FD07C09F5F87
:100B3000973071F78093E90081E008953091EB00E0
:100B40003E7F3093EB003091ED003D7F3093ED0020
:100B50003091EB0031603093EB007093EC00209308
:100B6000ED005093F0002091EE0027FDE0CF80E0F3
:100B70000895B0E0A0E0EFEBF5E00C94642DC8ED33
:100B8000D0E088818F7E8883E7EDF0E0808181600E
:100B9000808384E082BF81E08093D80288818E7F49
:100BA000888302EE10E0F80110821092DA0081EEE4
:100BB000C82ED12CF601108288818F778883888196
:100BC0008068888388818F7D888319BC1092EC02AD
:100BD0001092ED021092E5021092E40290EEE92EDE
:100BE000F12CF70180818B7F8083888181608883ED
:100BF00042E060E080E00E948705F60180818E7F00
:100C00008083F80180818160808380818860808317
:100C1000F70180818E7F8083888180618883CDB752
:100C2000DEB7E8E00C94802DFC018091F4029091F5
:100C3000F50286179707A0F06115710529F49091C8
:100C4000E8009E779093E80090E06115710551F4FB
:100C5000911108C08091E80082FF34C080E00895BF
:100C6000BC01F2CF8091EC028823C1F18530C1F143
:100C70008091E80083FD30C08091E80082FDEACFDA
:100C80008091E80080FFE1CF8091F3002091F20095
:100C9000382F6115710519F02830310558F091E0B1
:100CA0002830310509F090E02091E8002E7720935C
:100CB000E800CBCF81918093F100615071092F5FE3
:100CC0003F4FE7CF8091EC02882341F0853041F01F
:100CD0008091E80083FFBECF81E0089582E008950F
:100CE00083E0089508958091DB02089587E797E7F0
:100CF000909301088093000888E19AE00FB6F89479
:100D0000A895809360000FBE90936000FFCF2FB72F
:100D1000F8946091D4027091D5028091D60290919E
:100D2000D7022FBF0895FC01680F791F8FEF91E361
:100D30002191822728E030E087FF09C0880F8927AA
:100D400021503109C9F7E617F70791F70895880F81
:100D5000F7CF90919101882341F09F5F909391018B
:100D600010928E0110928D0108959150F7CFE6E810
:100D7000F1E0828591E089278287108617820895A5
:100D80008091900181110CC09091A5029695969545
:100D9000969581E020918701921380E081700895FB
:100DA00081E0FCCF80918F01811108C08091910179
:100DB000811104C00E94C0068170089581E090E016
:100DC000FBCF80916101F90180830895CF93DF9378
:100DD000E1E6F1E083819481A581B681E901888310
:100DE0009983AA83BB831482138216821582DF91B2
:100DF000CF91089580E0089563E070E086E192E08D
:100E00000E94930690911502891318C0E091160272
:100E1000EB30A4F488E0E802F0011124EF5FFE4F0C
:100E20000680F781E02D309749F029E332E04091C8
:100E3000180269E172E08091170209950895E1E0D6
:100E4000F1E0ABE0B2E01C968C911C9780A71D9658
:100E50008C9183AF0895F894E82FE295EF70F0E05D
:100E600031A1282F2F7081E090E001C0880F2A95D2
:100E7000EAF7982F9095932391A392A1892B82A3AF
:100E800078940895811522E5920780F5811530E563
:100E9000930708F0ABC0883E9105A0F4803E910511
:100EA00058F4853A910548F48430910528F481304E
:100EB000910511F090E080E008958D3C9105D0F30C
:100EC00090650895811540E4940708F044C08115A9
:100ED00050E2950708F0A3C0811561E0960750F332
:100EE00020E0392FA901482BCA010895803872E506
:100EF0009707A8F4803622E5920708F05AC080349C
:100F000032E5930708F03FC0803242E5940730F1A4
:100F10008F7190E0982F8827816F906A0895803CA8
:100F200052E5950760F4282F2F71803A924508F416
:100F300056C0822F90E0982F882790620895803EB7
:100F400072E5970708F0B6CF982F882788279F71FA
:100F5000806F906A08959F70906A0895282F269553
:100F6000269550E2259F90011124837041E050E0C6
:100F7000BA0102C0660F771F8A95E2F7CB01822B78
:100F8000932B9D680895282F26952695277070E24B
:100F9000279F90011124837041E050E0BA0102C004
:100FA000660F771F8A95E2F7CB01822B932B9C6803
:100FB0000895282F26952695277070E2279F900187
:100FC0001124837041E050E0BA0102C0660F771F20
:100FD0008A95E2F7CB01822B932B9A680895822F92
:100FE00090E0982F8827846F906A08959C0195E07F
:100FF000369527959A95E1F72F7030E0322F22270A
:10100000482F4F7150E084FF05C084E0440F551F06
:101010008A95E1F7C901842B952B906908959F71FA
:101020008CCF80959091D90298239093D9020895FE
:1010300080912F039091F602981301C008958F5F5D
:101040008770FACF292F983078F5863068F590E0D0
:1010500036E0239F800D911D1124682F677023E0D7
:10106000969587952A95E1F7FC01EE0FFF1FE80F93
:10107000F91FE552FE4F50E040E080E0219130E062
:10108000062E02C0369527950A94E2F72170332781
:10109000042E01C0220F0A94EAF7822B4F5F5F4FA4
:1010A0004330510559F7089580E00895292F98306D
:1010B00098F5863088F590E036E0239F800D911DED
:1010C0001124282F277041E001C0440F2A95EAF728
:1010D00023E0969587952A95E1F7FC01EE0FFF1F17
:1010E000E80FF91FE552FE4F30E020E070E051912B
:1010F000DF011197CB01022E02C0969587950A94C5
:10110000E2F7817081958527842385278C932F5F53
:101110003F4F2330310559F70895809378020895A1
:10112000982F92959F7011F0892F94E0282F269583
:10113000269511F09E5F822F869509F09F5F892F7B
:101140000895CF93C82F80916E018C1751F00E94A3
:10115000870660936F017093700180937101909383
:101160007201C0936E01CF9108958F929F92AF92BA
:10117000BF92DF92EF92FF920F931F93CF93DF9373
:101180008C01EB01D42E0E9487064B015C0140913B
:101190007301411101C044E04150550B81E090E0E2
:1011A0007C01042E02C0EE0CFF1C0A94E2F7D80169
:1011B000ED91FC91CF01B7010E94AB2D9B01CB01BA
:1011C000042E02C0880F991F0A94E2F7E81BF90B5E
:1011D000D8011196FC93EE931296ED91FC91CF01FC
:1011E000B7010E94AB2DCB0102C0880F991F4A9511
:1011F000E2F7E81BF90BD8011396FC93EE931297D4
:101200006138BFEF7B070CF450C0603871050CF0FB
:101210004EC06D8321388FEF38070CF44AC0203858
:1012200031050CF048C0822F81958C83DD2019F0A8
:1012300061956D832C83809174018823F1F1813055
:10124000F1F18D8181958D838C8181958C83809145
:101250006F0190917001A0917101B0917201881A93
:10126000990AAA0ABB0AA2E38A169104A104B1044E
:1012700080F410926501109264011092670110923F
:101280006601109269011092680110926B01109230
:101290006A01DF91CF911F910F91FF90EF90DF9046
:1012A000BF90AF909F908F90089561E8B2CF6FE7A5
:1012B000B0CF21E8B8CF2FE7B6CF1D82C2CF1C82B6
:1012C000C0CFFC01DB012281338191E821388FEF0F
:1012D00038072CF0922F203831050CF09FE712963A
:1012E0009C9312972081318121388FEF3807A4F029
:1012F000203831059CF413962C931397442339F02E
:10130000919512969C931297219513962C93118286
:10131000108213821282089521E8EDCF2FE7EBCFE0
:101320008F708A3010F4805D0895895A0895382F9F
:1013300020E287FF02C031952DE24AE0832F642F1F
:101340000E949D2D905D9093D30181110BC020933D
:10135000D20120E22093D10120E22093D00180ED40
:1013600091E00895642F0E949D2D905D9093D2018D
:10137000832F64E60E949D2D882361F3805D809316
:10138000D101EBCF9C01860F971F37FD07C077FD7A
:1013900004C097FF02C08FEF9FE7089577FFFDCF4E
:1013A00097FDFBCF80E090E80895EFE8F1E083E05F
:1013B000DF011D928A95E9F7EBE8F1E084E0DF01B7
:1013C0001D928A95E9F7089520918801309189014D
:1013D0002817390731F090938901809388010E9482
:1013E000D509089590918601981721F08093860180
:1013F0000E94D5090895CF939091A00280919902FF
:10140000981323C08091A102882321F090919A0221
:1014100089131BC08091A202882321F090919B0226
:10142000891313C08091A402882321F090919D021A
:1014300089130BC09091A302992329F081E0209198
:101440009C02291303C080E001C081E0C82FC17055
:1014500080FF0FC0E091D102F091D202309749F0A5
:1014600082E080939F020480F581E02D8FE992E075
:1014700009959091A00286E0EFE9F2E0DF01282FC4
:101480001D922A95E9F79093A002A8E9B2E0019095
:101490000D928A95E1F781E0C11103C0911101C05D
:1014A00080E08170CF9108952FE2280F283078F4E2
:1014B00081E090E001C0880F2A95EAF72091A00210
:1014C000662331F0822B8093A0020E94FB090895CD
:1014D00080958223F8CFCF93DF93D82F2091870177
:1014E00081E090E002C0880F991F2A95E2F780956D
:1014F0009095CD2FC8238C2F0E9490088530D1F471
:1015000080918601882329F00E94C006811101C0C4
:10151000DC2F80E00E94F2098D2F0E94900891E05C
:10152000853009F090E0892F0E94A1088D2FDF916E
:10153000CF91089581E0EECF0E946B0A8093A602BE
:1015400008959091A60221E030E0F90101C0EE0F6C
:101550008A95EAF7D90102C0AA0FBB1F6A95E2F784
:10156000EA2B01C0220F4A95EAF7892F8E23E81350
:1015700005C0292B822F0E949C0A089520952923BB
:10158000F9CF21E030E001C0220F8A95EAF72095DB
:101590008091A60282230E949C0A08959091A50240
:1015A000809589238093A502282F277069F48917D5
:1015B00059F090917A0292FF07C08695869586959C
:1015C0000E94C10A1092A502089521E030E001C0F6
:1015D000220F8A95EAF78091A602822B0E949C0A2C
:1015E0000895CF93DF93282F81E02A3019F02D3012
:1015F00031F480E00E94850BDF91CF9108958091B6
:10160000390590913A0536E0FC01A3E3B5E001907D
:101610000D923A95E1F730EE320F343A08F458C0A3
:1016200026E0FC0111922A95E9F7C0913905D09185
:101630003A0546E050E0BE0183E395E00E94D52DD7
:101640009E0123533340892B41F1C90145E0969512
:1016500087954A95E1F741E050E0BA0102C0660F74
:10166000771F8A95E2F7CB016091310370913203C5
:10167000862B972BB9016B5F7F4FE5E076956795D9
:10168000EA95E1F702C0440F551F6A95E2F7842BF3
:10169000952B90933203809331032A5F3F4F409103
:1016A0003003642F70E0C9010E94462D481B46306C
:1016B00010F4240F311D211572E0370710F030E0CF
:1016C00020E02D5C3C4F30933A052093390594CFB0
:1016D0002052330B46E0429FB001439F700D11240E
:1016E00064527A4F46E050E00E94CC2D9ECFCF93BB
:1016F000DF93EC01FE018491811103C0DF91CF9152
:1017000008950E94F10A2196F5CFCF93382FE091EA
:101710003905F0913A05E353F34020913003622FED
:1017200070E0CF010E94462D281B822F332361F0E9
:1017300066E00E94912DC82FC15010F4CF910895FA
:1017400080E20E94F10AF8CF9F01280F311D211578
:10175000324018F080E0F0E0E0E08E0F9F2F911D06
:101760008D5C9C4F90933A0580933905E7CF80912B
:10177000D9029091FD01892B8093C8019091FC01C1
:10178000992391F0892B8093C80120E08AEC91E0A5
:10179000FC013191CF0131112F5FF1E0803D9F07B6
:1017A000B9F721111092FC0148E050E064EF71E0BC
:1017B00088EC91E00E94D52D892BA9F088E0E8EC17
:1017C000F1E0A4EFB1E001900D928A95E1F7E0918C
:1017D000D102F091D202309731F00280F381E02DF6
:1017E00088EC91E009950895EAECF1E086E0DF01EC
:1017F0001D928A95E9F71092FD010E94B70B08959A
:10180000AAE2B0E0E6E0FCE00C94692D8EEE92E0F6
:101810002091F100DC012D93CD01B2E0863F9B07C2
:10182000B9F78091EF02833009F472C0B8F48130C7
:1018300009F449C0823009F4B5C08091E80083FF03
:10184000B8C28091EE029091EF029A3008F0B1C2D6
:10185000E92FF0E0EB5BF14D0C94BF2D8A3009F4D9
:1018600090C08B3009F471C0893039F78091EE0255
:10187000813219F78091F2029091F302009711F0F2
:101880000297D9F68091E800877F8093E8008091E5
:10189000E80082FF38C09091F3008091F200029737
:1018A00031F48091F100813011F0863021F4809183
:1018B000F1008093DB028091E8008B778093E80051
:1018C0000E946805BACF8091EE02813A09F0B5CF47
:1018D0008091E800877F8093E8008091F2029091E8
:1018E000F302892B61F468E08CED92E070E00E94D5
:1018F00014068091E8008B778093E8009ECF60E02B
:1019000090E080E0F3CF8091EC028111C0CF95CFC1
:101910008091EE02813A09F090CF8091F20290918D
:10192000F302892B09F089CF8091E800877F8093AB
:10193000E8008091E80080FFFCCF809199018093BE
:10194000F1008091E8008E77B9CF8091EE0281326C
:1019500009F073CF8091F2029091F302892B09F084
:101960006CCF8091E800877F8093E8000E94680533
:101970008091F002809399011092D9020E94F40B99
:101980005CCF8091EE02813209F057CF8091E80060
:10199000877F8093E8000E9468058091F102809320
:1019A000DA024BCF8091EE02813A09F046CF809166
:1019B000E800877F8093E8008091E80080FFFCCFFB
:1019C0008091DA02BCCF803899F0823809F0F1C1F9
:1019D0008091F2028F70873008F0EBC18093E900AC
:1019E0008091EB0085FB882780F91092E90006C002
:1019F0008091E4029091E502911182609091E8005B
:101A0000977F9093E8008093F1001092F10080910D
:101A1000E8008E77CAC1882309F4B8C1823009F082
:101A2000C8C18091F0028111BBC18091F2028F7018
:101A30002FEF280F263008F0BCC18093E9002091D9
:101A4000EB0020FFADC1933031F48091EB00806258
:101A50008093EB00A5C19091EB0090619093EB0017
:101A600021E030E001C0220F8A95EAF72093EA00D6
:101A70001092EA008091EB008860EACF811199C151
:101A80001091F0021F778091E3008078812B809382
:101A9000E3008091E800877F8093E8000E9468055A
:101AA0008091E80080FFFCCF8091E3008068809304
:101AB000E30082E0111183E08093EC027AC1805848
:101AC000823008F076C12091F0023091F1022C3D75
:101AD000E3E03E07A1F583E08A838AE289834FB77A
:101AE000F894DE01139620E03EE051E2E32FF0E0AF
:101AF00050935700E49120FF03C0E295EF703F5FE1
:101B0000EF708E2F90E0EA30C0F0C7968D939D93D2
:101B10002F5F243159F74FBF8091E800877F809372
:101B2000E8006AE270E0CE0101960E9414068091FE
:101B3000E8008B778093E8003CC1C096E7CF8091A6
:101B4000F2029091F302432F55274330510509F4D7
:101B50004AC078F54130510509F4A5C08BE590E005
:101B6000E3E4F5E04230510509F023C12091E8009B
:101B7000277F2093E8002091F4023091F50282172C
:101B8000930708F49C0140E02115310509F090C04D
:101B900041118EC08091E80082FDC9CF8091EC0296
:101BA000882329F2853019F28091E80083FFF2CF73
:101BB000BECF4132510509F467C04232510509F0E8
:101BC000F8C08330910508F0F4C0FC01EE0FFF1F50
:101BD000E654FE4F0190F081E02D89549E4FDC01C8
:101BE0008C9190E023C033272130310559F1211524
:101BF000310501F12230310569F190E080E0F0E03B
:101C0000E0E02091F4023091F5024091E6024F5F4E
:101C10004093E6023093EB022093EA022230310532
:101C200009F52091E7022F5F2093E702009709F45E
:101C3000C0C09CCFE8EDF5E0E4918E2F90E0E8ED98
:101C4000F5E0DFCFE6ECF5E0E4918E2F90E0E6ECF6
:101C5000F5E0D7CFE0EBF5E0E4918E2F90E0E0EBFC
:101C6000F5E0CFCF2430310531F42091E8022F5F29
:101C70002093E802DBCF2F3F3105C1F62091E90226
:101C80002F5F2093E902D2CF8330910508F091C0F5
:101C9000880F991FFC01E054FE4F0190F081E02D68
:101CA00089E090E063CF82E190E0EEE9F5E05ECF7D
:101CB0008091EC02882309F43ACF853009F437CFBC
:101CC0008091E80083FD33CF8091E80082FD62CFF0
:101CD0008091E80080FF58CF9091F3008091F2004E
:101CE0002115310519F08830910550F041E0089731
:101CF00009F040E08091E8008E778093E80044CFBF
:101D000044914093F1003196215031090196E8CF7A
:101D1000803809F04EC08091E800877F8093E8000A
:101D20008091ED028093F10072CE811142C010913A
:101D3000F0021230F0F58091E800877F8093E80090
:101D40001093ED020E946805112311F084E005C094
:101D50008091E30087FDFACF81E08093EC0242E0BE
:101D600061EC81E00E94870542E261EC84E00E9420
:101D7000870542E261EC82E00E94870542E260EC66
:101D800083E00E9487058091EC0213C08091F002ED
:101D9000813079F481E0933009F080E08093E502AE
:101DA0001092E9008091E800877F8093E8000E940C
:101DB00068058091E80083FF0AC08091E800877F72
:101DC0008093E8008091EB0080628093EB00AA96FC
:101DD000E3E00C94852D882321F00E9411080E94D5
:101DE000B70B0895882339F09091D902982B9093DE
:101DF000D9020E94B70B0895882349F19CEF980FF0
:101E0000913A80F4EAECF1E020ED31E09191891310
:101E100003C0DF0111971C922E173F07B9F70E94EC
:101E2000B70B089590E2980F983050F4877091E0C6
:101E300001C0990F8A95EAF7892F0E941108EFCF08
:101E400093E3980F933118F460E00E94540A0895C8
:101E50000F931F93CF93C82F882341F18CEF8C0FE2
:101E6000813AB0F50AEC11E080ED91E0F8012191A2
:101E7000C21701F18E179F07D1F7EFEF80E0D8016D
:101E80009D918D01C91781F0EF3F19F4911101C0A7
:101E9000E82F8F5F863099F7EF3F31F00E2E000C60
:101EA000FF0BE853FE4FC2830E94B70BCF911F91E7
:101EB0000F910895EAECF1E02191C21303C0DF0114
:101EC00011971C928E179F07B9F70E94B70BD5CFB9
:101ED00080E28C0F883068F4C77021E030E001C0E8
:101EE000220FCA95EAF78091D902822B8093D902FA
:101EF000DBCF83E38C0F8331C8F661E08C2F0E9427
:101F0000540AD4CF0F931F93CF93DF93EC01FC01BE
:101F100001900020E9F78F0101501109C017D10786
:101F200028F0DF91CF911F910F91089589910E9420
:101F3000F10AF4CF0F931F93CF93DF938B01EA0144
:101F40009091EC02943061F58093E9008FEF9091CD
:101F5000E800815095FD06C095ED9A95F1F70000D7
:101F60008111F5CF8091E80085FF1AC00E943705E6
:101F7000811111C08091E80085FD06C08091E800C4
:101F80008E778093E800F2CFF80181918F018093E2
:101F9000F100219779F78091E8008E778093E8002F
:101FA000DF91CF911F910F91089546E050E0BC0161
:101FB00084E00E949A0F0895CF93DF93EC0148E0EC
:101FC00050E0BC0181E00E949A0F88E0FE01ACED78
:101FD000B2E001900D928A95E1F7DF91CF910895DB
:101FE000B0E0A0E0E6EFFFE00C94622D7C015B0125
:101FF0006A018091690201E010E08A3010F40AE081
:1020000010E0C1E0D0E0B501C701F60109958111EA
:1020100004C021960C171D072CF4CDB7DEB7EAE0FB
:102020000C947E2DCC9F9001CD9F300D300D11244E
:1020300090E080E045E34A95F1F7000001968217B1
:102040009307C1F7E0CF80910A02811119C088EC93
:1020500090E02091E30027FD10C0EFE3FCE9319709
:10206000F1F700C000000197A1F782E080930A0217
:102070000E9418051092EC0203C081E080930A02CE
:1020800081E090910A02913011F080E00895089566
:102090000E942310882359F0E091D102F091D202DE
:1020A000309729F00190F081E02D0995089580E0A6
:1020B00008950F931F930E942310882329F00E94F4
:1020C00087061F910F9108950E94870600916A026A
:1020D00010916B0220916C0230916D02600F711FA4
:1020E000821F931FEECF25982D9A869A8E9885E0B1
:1020F0008A95F1F7000083B186988E9A90EA9A95B6
:10210000F1F790E025E0959587952A95E1F7809580
:102110009095817008951F93CF93DF93182FEB0153
:102120000E94280F8FE99FE00197F1F700C000009F
:102130002197C1F7812F0E94FC0EDF91CF911F9153
:1021400008951092D9020E94F40B2FEF84E39CE0D3
:10215000215080409040E1F700C0000088E19AE003
:102160000FB6F894A895809360000FBE909360001E
:10217000FFCFCF93DF93C9ECD2E060E0CE010E94A5
:102180000F2E2196C11584E0D807B9F7DF91CF91C2
:1021900008951F93CF93DF93122F8730E0F46830B8
:1021A000D0F44630C0F4C42FD0E0CC0FDD1F9CE04B
:1021B000699FC00DD11D112490E6899FC00DD11DCE
:1021C0001124632FCE0189960E940F2E612FCE011C
:1021D0008A960E940F2EDF91CF911F910895AF92A2
:1021E000BF92CF92DF92EF92FF921F93CF93DF9334
:1021F00083EAC82E82E0D82ED0E07601C0E014C079
:10220000F50125913491412F6C2F8D2F0E94C9101B
:1022100082E0A80EB11C1F5F163091F78CE0E80E2B
:10222000F11CCF5FC83019F0570110E0E9CFDF5F34
:1022300080E6C80ED11CD73001F7DF91CF911F91F6
:10224000FF90EF90DF90CF90BF90AF90089588E21D
:1022500090E00E940F2E0895CF93C82F6FEF811149
:1022600064E285E290E00E940F2EC1110DC0CFEF15
:102270006C2F86E290E00E940F2E6C2F87E290E098
:102280000E940F2ECF910895C1E1F2CF80E00E940D
:102290002C1160E070E0CB010E9427110E94EF102A
:1022A0000E94B91081E00E942C1108950F931F9392
:1022B000CF93DF93873030F5683020F5463010F546
:1022C000C42FD0E0CC0FDD1F2CE0629FC00DD11DCC
:1022D000112430E6839FC00DD11D1124CE018996B3
:1022E0000E94EB2D082F10E0102F0027CE018A96B8
:1022F0000E94EB2D9801282BC901DF91CF911F91EE
:102300000F91089590E080E0F8CF462F783040F4A8
:10231000663030F4873020F4672F0E9456110895FC
:1023200090E080E00895CF92DF92FF920F931F9389
:10233000CF93DF936C010091A60280917802082B65
:10234000C6E0D0E010E0FC2EC8010C2E02C095952E
:1023500087950A94E2F780FD0CC02197A0F7F12C35
:102360008F2DDF91CF911F910F91FF90DF90CF9034
:102370000895B6018C2F0E9485110E944207019793
:1023800061F3EECFCF93DF93EC010E949311BE0176
:102390000E9485110E944207DF91CF910895FC01B0
:1023A00024812223C1F0808191810E94C2119295E3
:1023B0009F70963091F058F4925F9F70923058F46D
:1023C000803F19F030F4883E30F481E008959A5F40
:1023D000F4CF843FD1F380E00895883EB0F3813F8D
:1023E000D1F7F3CFA6E0B0E0E8EFF1E10C94692D6E
:1023F00049835A8349815A819923A1F0222391F07C
:10240000CA010E949311182F682F89819A810E9416
:10241000560869817A81812F0E9485112696E3E012
:102420000C94852DCA010E942208182FF2CF88E251
:1024300090E00E94EB2D682F70E090E080E008951E
:1024400085E290E00E94EB2D843289F486E290E0F0
:102450000E94EB2D813159F487E290E00E94EB2D30
:1024600091E0813109F090E0892F8170089580E03A
:10247000FCCFB0E0A0E0EFE3F2E10C94642D6C013E
:102480007B0164E670E088E70E94A42A8C01E601E3
:10249000EC0CFD1C17FD0BC0FE01849164E670E09E
:1024A0000E94102B8C012196CE15DF0599F70E9412
:1024B000862B81E00115110509F080E0CDB7DEB76C
:1024C000E8E00C94802D8091CD029091D002911182
:1024D00003C091E089270895882369F062E070E0E5
:1024E00084E692E00E943912811103C08091CD02EE
:1024F00008951092CD028091CD02EBCFCF93C09181
:10250000CD028091D0028823D1F00E948706605AC4
:1025100075418F4F9F4F6093C9027093CA02809399
:10252000CB029093CC02C11108C062E070E082E659
:1025300092E00E943912811105C0C091CD028C2F0A
:10254000CF91089581E08093CD02F7CF90917A02E8
:1025500092FB222720F9281779F080FB92F99093BB
:102560007A026091790270917A0284E090E00E9490
:102570002D2E82E00E94CE0A089590E080E00E9415
:10258000F92D863E9E4F19F40E942012089580E096
:102590000895B0E0A0E0EFECF2E10C94652D790134
:1025A000C82F880FDD0B41155105A9F0FE0193E0FE
:1025B000EE0FFF1F9A95E1F7EF5FFE4F8181928149
:1025C000855F9D4F208130E04217530708F49A0140
:1025D000A9010E94E22DCE010E94D02CD82E882382
:1025E000D1F001151105B9F083E0CC0FDD1F8A95FC
:1025F000E1F7FE01EF5FFE4F438150E0041715073E
:1026000008F4A801CF5FDE4F6C817D81655F7D4F4F
:10261000C7010E94E22D8D2DCDB7DEB7E7E00C9407
:10262000812DA5E0B0E0E7E1F3E10C94622D8D830C
:10263000E62E5A01F22E6801809169028A3028F054
:1026400080E02596EAE00C947E2D8D818830C4F3DD
:102650001A8219828A836B832C8363E070E0CE0137
:1026600002960E9493068983E0922901F0923C0130
:1026700010E000E030E020E044E050E0BE016F5F99
:102680007F4F84E00E94C9128823D1F24E2D50E082
:1026900030E020E0B50185E00E94C912882381F274
:1026A00030E020E041E050E0BE016B5F7F4F86E00C
:1026B0000E94C912882321F20F2D10E0960150E0EC
:1026C00040E070E060E087E00E94C912BACFA1E06C
:1026D000B0E0EDE6F3E10C94642D2091CD02298366
:1026E00080911402C0906502D0906602E09067026B
:1026F000F09068029FB7F8944091D4025091D502AF
:102700006091D6027091D7029FBF4C195D096E0986
:102710007F09443651056105710528F490E011E008
:1027200028171906C9F010E000E030E020E041E091
:1027300050E0BE016F5F7F4F83E00E94C912182FE7
:10274000882351F00E9487066093650270936602A9
:102750008093670290936802812F2196E8E00C94A1
:10276000802DA4E0B0E0E7EBF3E10C94682D4091FC
:1027700061025091620260916302709164022FB70E
:10278000F8948091D4029091D502A091D602B09194
:10279000D7022FBF841B950BA60BB70B11E0843615
:1027A0009105A105B10518F10E9459106E5F7F4F88
:1027B0008F4F9F4F69837A838B839C8310E000E067
:1027C00030E020E044E050E0BE016F5F7F4F82E0E8
:1027D0000E94C912182F882351F00E948706609327
:1027E0006102709362028093630290936402812F6E
:1027F0002496E4E00C94842DA5E0B0E0E2E0F4E15E
:102800000C94662D7B0101E010E09E012B5F3F4F91
:1028100050E040E070E060E080E00E94C912182FB4
:10282000882309F456C040915D0250915E02609188
:102830005F02709160022FB7F8948091D40290915A
:10284000D502A091D602B091D7022FBF841B950B61
:10285000A60BB70B84369105A105B10548F464E0D9
:1028600070E08CE092E00E9493069D81891789F1C7
:1028700004E010E09E012F5F3F4F50E040E070E029
:1028800060E081E00E94C912082F64E070E08CE0F3
:1028900092E00E94930611E09D81981310E01023AE
:1028A00031F10E94870660935D0270935E0280930F
:1028B0005F029093600289819A81AB81BC81809391
:1028C000590290935A02A0935B02B0935C0211E00C
:1028D0000EC080910C0290910D02A0910E02B09159
:1028E0000F0289839A83AB83BC831111E4CF80915B
:1028F000590290915A02A0915B02B0915C02F701DB
:1029000080839183A283B383812F2596E6E00C9484
:10291000822D28E030E043E060E086E30E94CC298D
:102920000895CF93DF93D82FC62F0E9489148D2F3F
:1029300080680E94442A8C2F0E94442A8AEB8A9540
:10294000F1F700C00E94742A83E492E00197F1F746
:1029500000C00000DF91CF910895682F893708F0FB
:1029600068E760936C0191E090936D019091610133
:10297000992339F06150811101C064E08FE00E9419
:1029800091140895FB0180810E94AD1408959091E7
:102990006C01911101C095E0282F880F330BA9011C
:1029A000490F511DCA011816190614F081E090E074
:1029B0000E94AD140895ACE0B0E0E1EEF4E10C94B7
:1029C000642D4F83588769877A878B879C8780918E
:1029D0006101882309F446C08091D501811107C0A7
:1029E00060E080E50E94911481E08093D5010E940F
:1029F000891480E50E94442A8AEB8A95F1F700C089
:102A00000E945C2A0E945C2A0E945C2A7C010E942F
:102A10005C2A20E0E22AF82A0E945C2A8C010E94AB
:102A20005C2A20E0022B182B0E94742A85E08A95EC
:102A3000F1F70000F894B70180916401909165016D
:102A40000E94C2099093650180936401B80180914E
:102A50006601909167010E94C2099093670180937B
:102A6000660178940E942310882309F469C00E94AB
:102A700087060091D6011091D7012091D80130919D
:102A8000D9016B017C01C01AD10AE20AF30A97014D
:102A90008601083011052105310508F451C0609305
:102AA000D6017093D7018093D8019093D9010091FA
:102AB0006F01109170012091710130917201601BC2
:102AC000710B820B930B623371058105910580F4C4
:102AD00010926501109264011092670110926601D4
:102AE000109269011092680110926B0110926A01B4
:102AF00010916E010E947310482FBE01695F7F4FD5
:102B000084E691E0112389F10E94B50800916E01DD
:102B1000109161010E94731041E04827BE01695F76
:102B20007F4F88E691E0011719F10E94B50886E011
:102B3000FE013796A9E7B1E001900D928A95E1F781
:102B400086E0FE013796DE01119601900D928A957E
:102B5000E1F729813A814B815C816D817E8180E042
:102B600090E02C96E8E00C94802D0E946109CECF75
:102B70000E946109DCCFCF93C82F0E9489148C2F4B
:102B80000E94442A8FE792E00197F1F700C000000D
:102B90000E945C2AC82F95E09A95F1F700000E94E8
:102BA000742A85E68A95F1F700001092D5018C2FE2
:102BB000CF910895CF93DF930E94C429269A0E9453
:102BC00089146AE58AE30E9491142FEF80E792E06E
:102BD000215080409040E1F700C0000082E00E9458
:102BE000BB1583E00E94BB1584E00E94BB1585E005
:102BF0000E94BB1586E00E94BB1560E080E10E9448
:102C0000911480E00E94BB15D82F81E00E94BB1573
:102C1000C82F0E94742AD23419F481E0C13009F01F
:102C200080E0817080936101882321F064E08FE06F
:102C30000E949114DF91CF9108951F920F920FB6C9
:102C40000F9211242F933F934F935F936F937F9332
:102C50008F939F93AF93BF93CF93DF93EF93FF93A4
:102C6000D091E900DF708091EC00C82FC17080FD29
:102C7000C0E81092E9008091F000877F8093F00017
:102C800078940E94000C1092E9008091F000886016
:102C90008093F000CD2BCF70C093E900FF91EF91AE
:102CA000DF91CF91BF91AF919F918F917F916F9164
:102CB0005F914F913F912F910F900FBE0F901F90FA
:102CC00018951F920F920FB60F9211242F933F93D6
:102CD0004F935F936F937F938F939F93AF93BF9324
:102CE000EF93FF938091E10082FF09C08091E200A1
:102CF00082FF05C08091E1008B7F8093E10080918D
:102D0000DA0080FF24C08091D80080FF20C080912D
:102D1000DA008E7F8093DA008091D90080FF9DC019
:102D200080E189BD82E189BD09B400FEFDCF81E06B
:102D30008093EC028091D802811109C00E9418058D
:102D40000E94B9058091E20084608093E200809146
:102D5000E10080FF17C08091E20080FF13C08091E6
:102D6000E2008E7F8093E2008091E2008061809398
:102D7000E2008091D80080628093D80019BC85E081
:102D80008093EC028091E10084FF2BC08091E200EF
:102D900084FF27C080E189BD82E189BD89B5982F74
:102DA000917080FFFBCF8091D8008F7D8093D800F9
:102DB0008091E1008F7E8093E1008091E2008F7E20
:102DC0008093E2008091E20081608093E200809134
:102DD000ED02882309F447C084E08093EC028091DF
:102DE000EC028091E10083FF27C08091E20083FF25
:102DF00023C08091E100877F8093E10082E080938F
:102E0000EC021092ED028091E1008E7F8093E10050
:102E10008091E2008E7F8093E2008091E2008061E9
:102E20008093E20042E060E080E00E9487058091AC
:102E3000F00088608093F000FF91EF91BF91AF9117
:102E40009F918F917F916F915F914F913F912F91C2
:102E50000F900FBE0F901F90189519BC1092EC02A6
:102E60001092D80274CF8091E30087FD93E0909395
:102E7000EC02B5CF78941F921FB61F9211248F9346
:102E80009F93AF93BF938091D4029091D502A0916C
:102E9000D602B091D7020196A11DB11D8093D40234
:102EA0009093D502A093D602B093D702BF91AF9171
:102EB0009F918F911F901FBE1F9018959C014FB737
:102EC000F8948091D4029091D502A091D602B0914D
:102ED000D7024FBF821B930B08952FB7F8948091B0
:102EE000D4029091D502A091D602B091D7022FBF03
:102EF00008952F923F925F926F927F928F929F924E
:102F0000AF92BF92CF92DF92EF92FF920F931F93F7
:102F1000CF93DF938091D002882309F4FEC0809183
:102F2000CE029091CF020E945E17C29708F4D5C0DE
:102F30000E946D179093CF028093CE0283E393E0BB
:102F400090933A05809339050E942310882309F451
:102F500001C18CE692E00E94770B88EB0E94F10A97
:102F6000809178010E9490090E94F10A89EB0E94E9
:102F7000F10A809177010E9490090E94F10A89E686
:102F800092E00E94770B809175019091760154E058
:102F9000969587955A95E1F70E9490090E94F10A4B
:102FA000809175010E9490090E94F10A86E692E0E4
:102FB0000E94770B8FE791E00E94820F8BE892E0EE
:102FC0000E94770B80917B010E9497090E94820FDB
:102FD00080917C010E9497090E94820F80917E015E
:102FE0000E9497090E94820F80917D010E9497099B
:102FF0000E94820F83E892E00E94770B80916C011F
:10300000811101C085E00E94970901960E94820FFC
:103010008FE792E00E94770B80917401882331F052
:10302000813009F48CC086E792E002C08CE792E020
:103030000E94770B80916E01882309F483C084E994
:1030400092E00E94770B82E792E00E94770B8091DA
:103050007301811101C084E0805D0E94F10A8AE958
:1030600092E00E94770BC1E0D0E08091A602882315
:1030700009F46BC090E00C2E02C0959587950A94D8
:10308000E2F780FF62C08C2F0E9490090E94F10A33
:103090002196C830D10549F780E20E94F10A87E9FC
:1030A00092E00E94770B80918601882309F44FC03B
:1030B00084E992E00E94770B8091880190918901C8
:1030C0006AE070E00E94462D862F0E9497090196C3
:1030D0000E94820F80E30E94F10A80913103909157
:1030E0003203892B09F04CC08091CD028823A9F0CE
:1030F0000E9487060091C9021091CA022091CB025A
:103100003091CC02601B710B820B930B6F3F7F4F92
:103110008F4F9F4710F40E946312DF91CF911F9150
:103120000F91FF90EF90DF90CF90BF90AF909F9066
:103130008F907F906F905F903F902F90089589E7D8
:1031400092E076CF81E992E07CCF80EB9FCF81E95E
:1031500092E0B0CFC0E9D0EFDC0F80EA92E00E94AD
:10316000770B11E01D0F8D2F0E94F10AD12F1C1338
:10317000F8CF80E00E94850BC05FC03C61F7ADCF07
:103180008091D002882309F4AFCF8091C8028111C9
:10319000ABCF0E947E122091310330913203211572
:1031A000310509F4A1CF80E041E050E0082F10E0A4
:1031B0001A01082E02C0220C331C0A94E2F7B10156
:1031C00062237323672B11F48F5FF0CF9091C702B6
:1031D00090FF95C0880F880F880F809394011092FC
:1031E0009701895F8093950183E08093980124E69D
:1031F00030E047E050E062E971E088E70E943E2B52
:10320000892B09F071CFA80125E0440F551F2A959D
:10321000E1F78091C70280FF84C0E7EAF2E080E234
:10322000DF011D928A95E9F7A3EBB1E00FEA11E007
:1032300087EBC82E81E0D82E97E0592E772473941F
:103240008D91E80129918E01240F352F311D2D5CC0
:103250003C4FE82FF0E0E955FD4F90E080E0652C11
:10326000681A872C082E01C0880C0A94EAF77901A5
:10327000A12CE701B9907E01B820662D6A1967700C
:10328000962E062E000C770BDB2D01C0DD0F9A94D5
:10329000EAF77195619571096770772701C0B69457
:1032A0006A95EAF7BD2A6081962E9B289082A394A6
:1032B00068E0A612DECF019631968830910579F646
:1032C000CA16DB0609F0BCCF04E610E020E230E0CD
:1032D00047EA52E060E488E70E945F2B892B09F0FF
:1032E00003CFE101C095D0958091310390913203D5
:1032F000C823D923D0933203C0933103F5CE8295EE
:10330000880F80768093940198013695279536959D
:10331000279520939701815E8093950120939801D2
:1033200066CF4D5C5C4F04E610E020E230E0D2CF87
:10333000AEE1B0E0EEE9F9E10C94692D40919F0215
:103340005091A0026091A1027091A2028091A3020B
:103350009091A4020E94DB1420939F023093A0025C
:103360004093A1025093A2026093A3027093A4021F
:1033700086E0EFE9F2E0DE01179601900D928A9562
:10338000E1F786E0FE013796DE011D9601900D9271
:103390008A95E1F786E0FE013D96DE0111960190E7
:1033A0000D928A95E1F786E0FE013196AFE9B2E031
:1033B00001900D928A95E1F786E0EFE9F2E0DE01F7
:1033C000599601900D928A95E1F786E0FE01799673
:1033D000DE01179601900D928A95E1F786E0FE01D5
:1033E0003796DE01119601900D928A95E1F786E0FD
:1033F000FE013196DE01539601900D928A95E1F718
:1034000086E0FE017396DE01179601900D928A9573
:10341000E1F786E0FE013796AFE9B2E001900D9248
:103420008A95E1F786E0EFE9F2E0DE011796019078
:103430000D928A95E1F780918601882309F445C0B1
:1034400080918B0190918C010E945E1720918A01DE
:1034500028171906D0F580918D0190918E010E9458
:103460005E17893C910588F189859A85892B9B8512
:10347000892B9C85892B9885892B91E009F490E014
:1034800090938F010E94D2061091A602882351F1D9
:103490000E946D1790938C0180938B0110928E0186
:1034A00010928D0180918701111105C0882369F068
:1034B0000E94E50A0AC0212F30E0082E02C035958F
:1034C00027950A94E2F720FFF3CF0E94FB098111B0
:1034D0002FC080919E0210929E0281706E96E3E052
:1034E0000C94852D80918701111118C08111EDCFA9
:1034F00080918B0190918C010E945E172091880130
:10350000309189012817390700F7809187010E94BF
:10351000C10A10928C0110928B01D7CF212F30E07D
:1035200002C0359527958A95E2F720FFCECFE0CFF0
:1035300081E090E0D0CFACE0B0E0E1EAFAE10C94B9
:103540005F2D8E010F5F1F4F88E0D8011D928A9575
:10355000E9F78DE9C82E81E0D82EF12CE12CAA24C0
:10356000A394B12C27EA822E21E0922EF6018191BC
:103570006F018F3F09F442C0F894E82FE295EF7095
:10358000F0E021A18F70A50102C0440F551F8A955C
:10359000E2F7CA01922F982B91A392A180958923DB
:1035A00082A3789400C0E1EAF1E0712C31E021912E
:1035B0002F3F09F46BC0A22FA295AF70B0E0909698
:1035C0008C9190E02F7002C0959587952A95E2F72F
:1035D00080FD5CC0832F782A330F8E169F0639F743
:1035E000F601319780818F3F11F00E942B0750EA3E
:1035F0005A95F1F7F801EE0DFF1D70828FEFE81A72
:10360000F80AA4E0EA16F10409F0B0CF48E050E06F
:10361000B8018EE692E00E94D52D009741F028E097
:10362000F801AEE6B2E001900D922A95E1F7009123
:103630007702892B69F181E0809302020E946D1765
:103640009093010280930002809100029091010208
:103650000E945E17059700F110E00B571D4F44E0E4
:1036600050E06EE672E0C8010E94D52DB12C892B86
:1036700051F084E0EEE6F2E0D80101900D928A95D7
:10368000E1F7BB24B3941092020207C080E0A3CFFD
:10369000809102028111D8CFB12C0E942310A82E54
:1036A000E0917702882309F47DC019861A861B866B
:1036B0001C860E2F10E00B571D4F809169028A3037
:1036C000D8F54CEF53E1BE01675F7F4FC8010E9400
:1036D000F00F882309F455C041EB53E1BE01675F49
:1036E0007F4FC8010E94F00F882309F44AC047E6C3
:1036F00053E1BE01675F7F4FC8010E94F00F88232E
:1037000009F43FC0109269028091760290E044E093
:1037100050E0BE01675F7F4F8B579D4F0E94D52DB4
:1037200021E020930902892BF1F4A12C8A2D8B2909
:103730002C96EDE00C947B2D809103029091040275
:103740000E945E17843F914008F0BBCF8091090230
:10375000882359F3FE01399684E0DF011D928A9592
:10376000E9F710920902E0917602F0E0EB57FD4F85
:1037700089859A85AB85BC8580839183A283B38339
:10378000D5CF809169028F3F31F08F5F80936902BE
:103790008A3008F4B9CF0E946D1790930402809389
:1037A0000302D4CFF0E0EB57FD4F84E0ACE0B2E091
:1037B00001900D928A95E1F764E070E08CE092E070
:1037C0000E94930680930B02C0901002D0901102C9
:1037D000E0901202F090130280910502909106028F
:1037E000A0910702B0910802C816D906EA06FB06A6
:1037F000D1F0C0920502D0920602E0920702F09248
:1038000008020E94231081110EC00E948706C61A6A
:10381000D70AE80AF90AC0926A02D0926B02E092D3
:103820006C02F0926D0280911402882319F00E94BC
:103830007E127CCF0E94631279CFA8E0B0E0E3E271
:10384000FCE10C945C2D8C01DC0114968C91149796
:10385000882309F4BDC021E04C9111965C91119729
:1038600012966C91129713967C91139715969C91D2
:103870000E94F2117C01F801D580DD2009F469C1B4
:1038800097578038910508F064C1FFE0FE1508F4F1
:103890008FC08FEF93E00E94EB2D811189C0E9EC7E
:1038A000AE2EE2E0BE2EE1104DC0FE01339686E062
:1038B000DF011D928A95E9F77AE0472E7501BFEF87
:1038C000EB1AFB0AC5010E94EB2D89831A8288231B
:1038D00009F46EC0813009F07FC06501E2E0CE0ED0
:1038E000D11CC7010E94EB2D8A83882309F460C094
:1038F0009FEF980F9330A0F5F3E0AF0EB11CC60117
:103900000E94EB2D8B83882309F452C01C82DE01B8
:1039100011967D01F7012081222381F2213009F0E7
:10392000BAC091818281913009F058C0F2E0EF0E67
:10393000F11C65E070E0893311F460E570E00E94ED
:103940008B1053C0A11424E0B20691F1C5010E946E
:10395000EB2D811101C0EA943FEFA31AB30AA3CF64
:1039600056018430A1F662E0E62EF12C56012FEFCD
:10397000A21AB20AC6010E94EB2DE1E0F0E0EC0FC2
:10398000FD1FEE0DFF1D8083882391F08C3741F4DD
:10399000E2E0F0E0EC0FFD1FEE0DFF1D1082B7CF4F
:1039A0003FEFE31AF30A650187E0E816F104F1F648
:1039B0008091A502877061F0D80115968C918823BB
:1039C00039F080917A0282FF03C082E00E94CE0A21
:1039D0002896E0E10C94782D570199CF923039F573
:1039E00022E0E20EF11C0E94280FFFEFEF1AFF0AFF
:1039F0008FE99FE00197F1F700C00000AFE9BFE059
:103A00001197F1F700C00000EFE9FFE03197F1F7FF
:103A100000C000008FE99FE00197F1F700C00000AF
:103A2000AFE9BFE01197F1F700C0000073CF93300A
:103A300031F432E0E30EF11C0E94FC0ED6CF94303C
:103A400021F08FEFE81AF80AD0CF92E0E90EF11CCE
:103A500030E020E0B7016F5F7F4FD70111964C91A6
:103A60008053990B8A30910558F02150310908F4A0
:103A7000BCCFEFE9FFE03197F1F700C00000F5CFD0
:103A8000429EF001439EF00D11249C012E0F3F1F1A
:103A9000842F7B01DFCFE22FF0E0E557FE4F5490FB
:103AA000822F86958695869590E0FC01E558FE4F1D
:103AB00064902770712C022E02C0759467940A944A
:103AC000E2F731E063227724FC01E559FE4F849050
:103AD000912C022E02C0959487940A94E2F7A1E0FB
:103AE0008A229924FC01E55AFE4FC490D12C02C0D1
:103AF000D594C7942A95E2F7B1E0CB22DD24611476
:103B0000710419F081EE0E94280F8114910419F0BC
:103B100086EE0E94280FE9E365E070E05E1202C0C5
:103B200060E570E0852D0E948B108114910419F0DE
:103B300086EE0E94FC0E6114710419F081EE0E9461
:103B4000FC0EC114D10409F450CF65E070E08CE2A2
:103B5000F6CE80918601882309F46FC0B0E2EB169F
:103B6000B2E5FB0608F052C0E114E2E5FE0608F0FB
:103B7000B7C0E114F0E4FF06E0F5E11420E2F2063C
:103B800008F0DAC030EEE316F10450F088EEE816E3
:103B9000F10408F44DC0E11491E0F90608F048C0C2
:103BA000F8018481882309F443C0F7E0EF16FEE7AB
:103BB000FF0609F4ACC0C7018D5C9109439708F476
:103BC000A6C00E94D206811133C0DD2059F0809139
:103BD00087012091A6022111B6C0882309F4BCC038
:103BE0000E94D5090E946D1790938E0180938D01DC
:103BF0001FC0E114A0E5FA0608F08DC0F801868127
:103C0000807F09F099C08F2D99278BC0B0E8EB1603
:103C1000B2E5FB0608F03BC0E0E6EE16E2E5FE0684
:103C200008F05EC0F0E4EF16F2E5FF0608F466C0A7
:103C30008091910187FD10929101F0927601E092BE
:103C40007501D8018D919C91119790937801809383
:103C50007701F7013497E533F10508F086C0E55F99
:103C6000FD4FE49115968C9120EB811102C02E2F0F
:103C7000E0EBAFE7B1E090E080E03D9132136FC040
:103C80008F599E4FDC015E96EC93F70175C020ECD6
:103C9000E21622E5F20660F230EEE31632E5F306B4
:103CA00008F07ECF20918701C7018F7199272817CF
:103CB000190609F0BDCF8D2D0E94A906D8011696D0
:103CC0008C911697807F803509F0B2CF15968C9134
:103CD000882361F180919101815080939101A8CF57
:103CE00020918701C7018F7199272817190609F0BC
:103CF0009FCFD1109DCF0E94B7069ACF2091870108
:103D0000C7018F7199272817190609F091CF8D2DBA
:103D10000E94A9068DCFC70155E0969587955A95C3
:103D2000E1F78F70992720918701EDCF0E94B706A8
:103D3000809191018F5FD1CFD80116968C91807FB1
:103D400009F476CF2DCF30E0082E02C035952795A7
:103D50000A94E2F720FF44CF0E94C10A41CF0196A6
:103D60008630910509F089CF90CFC7019A95F70168
:103D700081159F4108F4FF27D80115968C91E13DEC
:103D8000F10540F0E93DF10578F0E730BEE7FB07CB
:103D900009F483C0882361F0FE57E031F10540F457
:103DA000E15BF14D0C94BF2D682F8E2F0E94540AB9
:103DB000D80115968C91B7E7EB16BCE7FB0609F422
:103DC000EFC0E8E7EE16ECE7FE0609F4F8C088233A
:103DD00099F0F3E0EF16FCE7FF0609F417C108F0CD
:103DE000F4C0E1143CE7F30609F401C181E0E816F0
:103DF0008CE7F80609F410C1F8018581E080F180B4
:103E0000882309F417C1C7010E949311D82E682F87
:103E1000C7010E945608B7018D2D0E9485110E948E
:103E200042077C01882ED8011596AC9015971696FE
:103E30009C9092943FE093228091A5028770F1F0CC
:103E4000CA2CAA20E1F08F2D807F803451F080E2CF
:103E50008E0D883098F0911004C08F2D807E8032B6
:103E600069F080917A0282FF09C082E00E94CE0A46
:103E70008091A5028770CC24C3948111C12CBF2CE2
:103E8000B2942FE0B222BBE0BB1508F43BC1EB2D8E
:103E9000F0E0E15AF14D0C94BF2D0E94A10888CFAB
:103EA00080E00E94AD141092730180E00E94F2093C
:103EB0008AE892E00E94E4097BCD40916C01209158
:103EC000730120FB47F9269523708091860180FBC2
:103ED00022F9809188019091890162E370E00E944B
:103EE000462D5FEF560F550F550F550F522B609112
:103EF0007401637070E08FE090E00E94212E58CD35
:103F000081E00E94C71454CD8FEFFBCF8AE0F9CF38
:103F100086EFF7CF90916E0181E089270E94A1087A
:103F200047CD80917301811101C084E08F5F181625
:103F30000CF081E0883008F087E08093730138CD81
:103F400080917301811101C084E08150F0CF81E044
:103F5000809374012DCD109274012ACD82E0F8CFA8
:103F60009091860181E089270E94F20921CD8091FC
:103F7000880190918901C296893EE3E09E0708F48A
:103F800099CF88EE93E096CF809188019091890136
:103F9000C2978436910508F08DCF84E690E08ACFF1
:103FA000882349F081E00E94E50A43E062E081E075
:103FB0000E94A10AFDCC81E00E94C10AF6CF8823AD
:103FC00011F082E0F0CF82E0F7CF9BE5E9169CE7A5
:103FD000F90671F1ACE5EA16ACE7FA06F9F0BAE5D4
:103FE000EB16BCE7FB0609F007CF81E01EC010927C
:103FF000D9020E94F40BEFEFF4E32CE0E150F04023
:104000002040E1F700C000000E9476066FEF7FEFCE
:1040100090E080E00E942D2E0E94A11080917A02F3
:1040200082FB882780F991E089270E94A612E4CEBE
:1040300080E0FBCFC7010E942208D82EECCEEF2DE6
:10404000EF70DE2E8F2D807F19F0D29490EFD92261
:10405000AA20B9F0DD2069F080E28E0D883010F0E2
:10406000811009C08091D902D82AD092D9020E9429
:10407000B70B8E2D45C08091FD01D82AD092FD014D
:10408000F6CF8E2D0E94FC0EDD20E1F180E28E0D38
:10409000883010F0811004C08D2D0E94110806C0D8
:1040A000D0948091FD01D822D092FD010E94B70BDF
:1040B00029C0FF2DFF70DF2E8F2D807F803219F0F9
:1040C000D29480EFD822882059F021E0821609F49A
:1040D00081C0AA2009F48DC0992009F44FC0C9CF2E
:1040E00080917A0282FD46C0AA20F1F1DD2039F0EC
:1040F0008091D902D82AD092D9020E94B70B80E0D1
:104100000E94280FAB2DA850BB0B149710F40E94EF
:104110004810CC20A9F08091A50280FD11C0F801C3
:1041200015828695869586950E94E50AC8010E94AB
:104130001D1C8091A5028695869586950E94C10AD0
:1041400020E0D8014C9111965C91119712966C91D8
:10415000129713967C91139714968C911497159639
:104160009C910E94F21134CC80E00E94FC0EDD2074
:1041700049F292CFAA20A1F0911004C08D2D0E9487
:10418000F20EC0CF31E09312BDCF8091FC019D2D86
:104190009823D91609F4B6CFD82AD092FC01B2CF11
:1041A0009110B0CF8D2D0E94EB0E9091FC018D2DC2
:1041B000892329F08D2D809589238093FC0180919E
:1041C000DA019D2D982309F49DCFD094D822D09266
:1041D000DA0198CFAA2029F085E0891508F492CF5A
:1041E000CDCF94E0991508F48DCF8D2D0E94EB0E64
:1041F00089CF9920D1F3A9E38A1209C1BFEFE7EE75
:10420000F3E0B150E040F040E1F700C000008E2D37
:104210000E94FC0E77CF6A2D8E2D0E94540A72CF19
:104220008F2D837091F5A1106DCF4E2D429546953F
:104230004770440F440F8E2D8F70042E01C0880FDD
:104240000A94EAF72E2D2071E4FE07C02FE030E03B
:1042500001C0220F4A95EAF720953F2D36953695F5
:104260003370323069F050F440917802313029F0E7
:10427000822B84230E948D0845CF842B822BFACF7A
:10428000282B809178028227F5CF8695AA2011F0FD
:104290008F2D8170882309F435CF4E2D4295469598
:1042A0004770440F440F8E2D8F70042E01C0880F6D
:1042B0000A94EAF72E2D2071E4FE07C02FE030E0CB
:1042C00001C0220F4A95EAF720953F2D3695369585
:1042D0003370323069F050F44091A602313029F049
:1042E000822B84230E949C0A0DCF842B822BFACF31
:1042F000282B8091A6028227F5CF9F2D9F70F92E43
:10430000AA2029F0892F0E94E50A8E2D38CF8E2D04
:104310000E94EB0E8F2D0E94C10AF4CE8E2DA2EFCB
:104320008A16B1F1A81570F0B0EF8B16D1F0E1EF5D
:104330008E1691F0AA2009F45EC091109ACE8F2DAE
:104340008F712AC0F3EF8F1651F124EF8212F2CF52
:1043500080917A0282FD2FC08F2D8F71AA20D9F211
:104360001BC0AA2081F034E0391508F4CBCE2F2DE4
:104370002F7181E090E001C0880F2A95EAF79091B3
:10438000A6028927AFCF85E0891508F4BBCEEFCF11
:104390008F2D8F71A110BFCF0E94E50AB3CE80E0B0
:1043A000AA2009F49FCF9F2D9F7181E001C0880F43
:1043B0009A95EAF797CFAA2099F09F2D9F71F92E31
:1043C000892F0E94E50A80917A0282FF07C0A8E047
:1043D000FA9EC001112483608093A5028F2DDCCF4B
:1043E00081E00E94CE0AB1E0B91508F08BCE82E0E0
:1043F0000E94CE0A87CE992079F0893341F4EFEFFD
:10440000F7EE23E0E150F0402040E1F7FECE8FE1EF
:104410009EE40197F1F7F9CE8F2D8F717CCFCF936A
:10442000DF938091F301807F09F04DC08091F2010C
:10443000882309F448C0E0912F035091F602C091FF
:10444000EE01D091ED016091EF017091F00147E034
:104450005E17C9F18E2F90E0E49FF0011124E9501E
:10446000FD4F2481222391F1489FF001499FF00DD7
:104470001124DF01A950BD4F11962C9111972C13D7
:1044800025C02C912D1322C015962C911597211122
:104490001DC012962D913C91261B370B283C3105EF
:1044A000A8F48091F3018F7080618093F301E35051
:1044B000FD4F80818F70806180838DEE91E00E943E
:1044C0001D1C0E941808DF91CF910895FC013196C0
:1044D000E770BECFA4E1B0E0E0E7F2E20C94602D1B
:1044E0008C0186E0F801DE011F9601900D928A95FD
:1044F000E1F7F8018481E5809DEEA92E91E0B92EC7
:104500009091F101911128C0882319F1EE20F1F06A
:10451000C8010E94CF11F82E8823C1F087E0F8016E
:10452000D50101900D928A95E1F78091F1018130DA
:1045300031F48091ED019091EE010E94C2110E9430
:104540000F228F2D6496ECE00C947C2DC8010E9404
:104550001D1CFF24F394F5CFD080C180828093800E
:10456000F090F2012091EF013091F001A401421B83
:10457000530BFF2009F4D9C0483C510508F092C004
:104580008823F9F29091EE018091F301282F207F8A
:1045900009F056C0C91214C09091ED01D91210C093
:1045A000E11048C08F7080618093F3018DEE91E03F
:1045B0000E941D1C8091F301F8018683F12CC1CF6C
:1045C000E11038C06C2D8D2D0E94F9046C2D8D2DBD
:1045D0000E94F904E82E8111F1CFDF86C88A8F8509
:1045E00098890E94C211292F22952F70243058F4E7
:1045F0009F70223088F0992399F0F8019681907F7E
:1046000079F4FE2C9ECF2A5F2F70223068F0C8010B
:104610000E941D1CEF2CF5CF992311F0882389F3FC
:10462000805E883070F3F3CF803F58F3815F833032
:1046300070F7E7CF8091F30181608093F301BECFE3
:10464000C91207C09091ED01D91203C0EE2009F400
:104650008DC0C8010E94CF11882309F477CFEE20C6
:1046600009F474CF8091F301803288F02091ED013C
:104670003091EE01398728879B868A869091F101D7
:104680009C871D868E87CE0108960E941D1C87E0A0
:10469000F801ADEEB1E001900D928A95E1F70E942C
:1046A0000F2257CF9091F301292F207F51F48DEEE7
:1046B00091E00E941D1C87E0F50111928A95E9F7AF
:1046C0007DCF882309F43DCF8091EE018C1110C07D
:1046D0008091ED01D8120CC0E1100AC09683C80188
:1046E0000E941D1C87E0F50111928A95E9F729CFF8
:1046F000C8010E94CF11882309F428CFEE2009F4C5
:1047000025CF8091F301803210F22091ED0130919C
:10471000EE013A8329839C828B829091F1019D83E3
:104720001E828F83CE010196B0CF483C5105D0F652
:10473000882309F40ECFFE2CEE2009F407CF8091D8
:10474000EE018C1120C08091ED01D8121CC0809127
:10475000F30180FD0FC0982F907F61F08683903F1A
:1047600031F0982F907F905F8F70892B8683C801DE
:104770000E941D1C87E0F801ADEEB1E001900D92A2
:104780008A95E1F7DECEC8010E94CF1181117FCF5B
:104790008091F30181608093F301C8010E941D1C88
:1047A000D0CEABE1B0E0E7EDF3E20C94682D4E8B98
:1047B0005F8B688F798F8A8F9B8F192F9111109241
:1047C000FD011D8A86E0FE017696DE011F960190AE
:1047D0000D928A95E1F70A8D002341F021E04F8583
:1047E000588969897A89C8010E94F2110B8B1C8B48
:1047F00087E0FE013F96DE01189601900D928A95A2
:10480000E1F7CE0108960E946A2281112AC087E052
:10481000FE013896DE01119601900D928A95E1F71E
:104820008C858823F1F02091F60230E0C9010196D1
:104830008770992740912F0348171906E9F097E0F0
:10484000929FD001939FB00D1124A950BD4FFE013E
:10485000319601900D929A95E1F78093F6020E94AD
:10486000180817E080912F039091F602891314C065
:104870006B96E4E00C94842D1092D9020E94F40B04
:104880001092F60210922F0387E0EDEEF1E0DF01C7
:104890001D928A95E9F7E5CF819FC00111248950C7
:1048A0009D4F0E946A22882319F380912F0390E084
:1048B00001968770992780932F03D4CFA6E0B0E0AC
:1048C000E4E6F4E20C94682D0E946D178C0180914F
:1048D000FE019091FF018017910781F019821A82E1
:1048E0000E946D17682F49815A81792F80E090E0EE
:1048F0000E94D1231093FF010093FE012696E4E06D
:104900000C94842D1F921FB61F9211248F939F9396
:10491000AF93BF938091D302811113C08091D402D1
:104920009091D502A091D602B091D7024196A11DD7
:10493000B11D8093D4029093D502A093D602B09378
:10494000D702BF91AF919F918F911F901FBE1F9073
:104950001895CDB7DEB7A7970FB6F894DEBF0FBE98
:10496000CDBF85B7806885BF85B7806885BF84B7B0
:10497000877F84BF0FB6F894A89580916000886106
:1049800080936000109260000FBE80E890E00FB648
:10499000F89480936100909361000FBE8AEF96E0D7
:1049A0009093C7018093C6010E9418050E94B90523
:1049B0008091E20084608093E20078948091EC0220
:1049C0008823A1F01091E9001F709091EC00892FCD
:1049D000817090FD80E8182B1092E9008091E8002A
:1049E00083FD0E94000C1F701093E90082E084BDDB
:1049F00093E095BD9AEF97BD80936E0010926A0286
:104A000010926B0210926C0210926D020E942012A2
:104A1000811102C00E9446110E9473108093000110
:104A20000E94231081110E94E42B8091000180914B
:104A3000000194E0811190E09093770284E0891B5B
:104A40008093760284EF0E942B0785EF0E942B074C
:104A500086EF0E942B0787EF0E942B0701EA11E0E7
:104A6000D8018D918D018F3F11F00E942B07B1E08D
:104A7000073A1B07A9F788E0E5E8F2E0DF01C82E56
:104A80001D92CA94E9F7EEE6F2E0DF011D928A95E5
:104A9000E9F70E94BD12811167C066EE7EEF90E0DB
:104AA00080E00E942D2E60E082E090E00E940F2EB8
:104AB00060E083E090E00E940F2E1092780260E0A8
:104AC00074E184E090E00E942D2E60E086E090E0AA
:104AD0000E940F2E6FEF87E090E00E940F2E40E0C3
:104AE00050E0BA0188E090E00E94212E60E084E26C
:104AF00090E00E940F2E60E087E190E00E940F2E70
:104B000060E08CE090E00E940F2E60E08DE090E08D
:104B10000E940F2E19821A821B821C821D821E8205
:104B20001F82188648E050E068E170E0CE010196EF
:104B30000E94FF2D40E050E0BA0180E290E00E9428
:104B4000212E80E00E942C110E94461140E050E08E
:104B5000BA018FE090E00E94212E40E050E0BA01BF
:104B600083E190E00E94212E82E090E00E94EB2DF4
:104B700080937B0284E090E00E94F92D90937A026A
:104B8000809379020E949B1AEFE3FCE93197F1F7D9
:104B900000C000000E949B1A8091850280FF08C01F
:104BA0006FEF7FEF90E080E00E942D2E0E9476064E
:104BB00083E090E00E94EB2D0E948D088091A60278
:104BC0000E946B0A0E942310882309F42CC180E004
:104BD0008093C70280E8809330030E949E2A6BE096
:104BE00070E087E592E00E9439128823E9F1809114
:104BF000C70265E070E081FD18C182E592E00E9485
:104C00003912882389F16DE070E080E492E00E941F
:104C10003912882349F10E948706605A75418F4FE7
:104C20009F4F6093C9027093CA028093CB02909306
:104C3000CC02E3E3F3E080E092E0DF019C011D920F
:104C400021503040E1F7F0933A05E09339058FEFBA
:104C50009FEF909332038093310381E08093D002E1
:104C60008093CD021092C8020E942310811102C0CD
:104C70000E94E72B0E94DA150E94231081112EC09A
:104C800081EE96E090934801809347012EE030E05A
:104C900030934301209342018EE290E090934601CD
:104CA0008093450146EE56E05093500140934F01EA
:104CB00030934B0120934A0190934E0180934D0114
:104CC00042EC54E150935801409357013093530103
:104CD0002093520190935601809355010E94BD127A
:104CE000882379F18FE090E00E94F32D8B01F82E5C
:104CF000862F8F770E94AD14001F0027001F612FA1
:104D00006370660F602B6093730112FB882780F934
:104D10000E94F209812F887F09F48AC016951695A2
:104D20001695212F30E02F5F3F4F42E3429FC00195
:104D3000439F900D11240E94E4098F2D837080936E
:104D4000740189E591E09093D2028093D10238E119
:104D5000A32EB12C4DE8842E42E0942E20E1322E79
:104D60008091EC0212E1853009F4A1C00E949B1AE7
:104D70000CE712E085E8E82E82E0F82E97EAC92ECB
:104D800091E0D92EB6019701F8019191D9018D9149
:104D90009D01DB014D91BD018423B2E0E438FB07A6
:104DA00009F491C0981789F30E942310282E612CD2
:104DB000F70171907F01D6018D916D017822F80184
:104DC00081918F01871539F1512C44244394872513
:104DD0008FA38FA18421B9F02220A9F059A26AA241
:104DE0000E946D179CA38BA3F1E0FDA391E0842D9D
:104DF000872109F490E09EA349A15AA16BA17CA14F
:104E00008DA10E94D1235394440C26E05212E1CF8D
:104E1000F80131977082639438E06312C9CF0E9421
:104E2000591011E055C082E0D3CE8DE492E0E7CE78
:104E30008AE892E080CF8091EC02843031F10E94C8
:104E400063120E9498191092D30230E40FB6F894BE
:104E5000A895A09260000FBE3093600083B7817F59
:104E6000846083BF83B7816083BF7894889583B75C
:104E70008E7F83BF0FB6F894A895809160008861FB
:104E800080936000109260000FBE8091E50288233D
:104E900071F00E949B1AE5E8F2E0A7EAB1E0819187
:104EA0009D91892309F058C28E169F06C1F7809103
:104EB000EC02853009F4BFCF1092D9020E94F40BA6
:104EC0000E94481053CF98136FCF0E945E2410E0C9
:104ED0000E9423100E949819882339F00E945910CB
:104EE0000E9479170E947E1204C00E947917111146
:104EF000F9CF0E94481090918402891721F0809385
:104F000084020E9487068091EC02843009F4DBC0A1
:104F10000E942310882309F423CF0E948706209142
:104F2000930221116BC000918F0210919002209189
:104F30009102309192026B017C01C01AD10AE20AFF
:104F4000F30A97018601043F11402105310508F459
:104F500055C060938F02709390028093910290935A
:104F6000920280918D0290918E02019690938E0212
:104F700080938D0219828E010F5F1F4F21E050E058
:104F800040E060E088E00E941113811106C080912A
:104F90008D0290918E020A978CF181E080939302AA
:104FA000809362019981911101C080E08093630137
:104FB0008091610110E0882329F00E94731011E0B4
:104FC000811112E080916301882309F4C1C10E941C
:104FD00073108111BFC182E0182B0E9417126B0160
:104FE0007C01DC01CB018C7FBC01CD01612BC6169D
:104FF000D706E806F90611F00E9427118091630197
:10500000882309F4ABCE0E9487066B017C01809156
:10501000940290919502A0919602B0919702A701F7
:105020009601281B390B4A0B5B0BDA01C901049767
:10503000A105B10580F119821A821B821C828E01A2
:105040000F5F1F4F24E050E040E060E089E00E94E5
:1050500011138823C1F069817A8180916801909150
:1050600069010E94C20990936901809368016B8174
:105070007C8180916A0190916B010E94C20990939A
:105080006B0180936A01C0929402D0929502E092E3
:105090009602F092970280916D01882309F45ECE0A
:1050A00080916C01898310E000E020E0AE014F5F49
:1050B0005F4F61E08AE00E941113882309F44ECE0D
:1050C00010926D014BCE83E08093E9008091E8005F
:1050D00082FF1ECF8091E80090E085FF05C00E940E
:1050E0003705882391F091E08091E8008B778093D9
:1050F000E800992309F40CCFE981E150E33160F530
:10510000F0E0E559F14D0C94BF2D00E210E0AE0146
:105110004F5F5F4F7A018091E80085FD0AC0809162
:10512000E8008B778093E8000E943705882399F385
:10513000DACF8091F100D7018D937D0101501109E3
:1051400051F7D1CF1A828CE08B831AC08A818230CA
:1051500001F128F4813061F08FEF898311C0833031
:10516000D9F08430C9F71B821C821D821E8208C0C0
:105170000E9487060E94C52D6B837C838D839E834E
:1051800040E250E0BE016F5F7F4F82E00E949A0FC5
:10519000BFCE0E941712EECF2B81822F90E0FE012E
:1051A0003496245E8830910558F7AC014B575D4F1B
:1051B000BC0169557E4FDA013C91DB014C913423EF
:1051C000319301962813EECFDBCF8A81823019F01C
:1051D0008530B1F2C1CF6B817C818D819E810E942F
:1051E000C52D0E942711CCCF4C816B818A810E94F2
:1051F00056119827892798279E838D83C1CF2D81AB
:105200003E813227232732274C816B818A810E947D
:10521000C910B6CF0E94EF10B3CF3A82B1CF81E070
:105220008A8387E391CFCA80DB80DC24CD24DC2411
:105230008E010F5F1F4FEC80E00EF12EF11CC601B6
:1052400087539D4FE016F10609F49ACFB7E3CB16CA
:10525000B1E0DB0650F40E94EB2DF8018483BFEF30
:10526000CB1ADB0A0F5F1F4FEACFD80114961C92AE
:10527000F6CF0A811B81102701271027FE013196E6
:105280006F01EC80E00EF12EF11CC80187539D4F99
:10529000E016F10609F474CF0733F1E01F0728F494
:1052A000D60114966C910E940F2EBFEFCB1ADB0A29
:1052B0000F5F1F4FEACF0E94B91062CF87E08A8349
:1052C0005FCFCA80DB80DC24CD24DC248E010F5F1D
:1052D0001F4FEC80E00EF12EF11CC6018996E016FE
:1052E000F10609F44DCFE0EACE16E2E0DE0658F40E
:1052F0000E94EB2DD80114968C93FFEFCF1ADF0A92
:105300000F5F1F4FEACFF8011482F7CF0A811B818C
:105310001027012710279E012F5F3F4F6901EC8066
:10532000E00EF12EF11CC8018996E016F10609F491
:1053300027CF003A32E0130728F4D60114966C9177
:105340000E940F2EBFEFCB1ADB0A0F5F1F4FEBCF70
:1053500080E042CE81E040CE39BC19BD09B400FEE8
:10536000FDCF8091D8008F7D8093D8008091E000A0
:1053700082608093E0008091E00081FDFCCF10927C
:10538000D9020E94F40B93CD289A219A229A23984D
:105390002B9880E58CBD089590919A019F3F09F06C
:1053A00071C08F3F09F46EC0611144C010923C057A
:1053B00090913C05423009F441C0433009F442C0A9
:1053C00094604130E1F141E050E042175307E0F1D1
:1053D00090913C054031510509F452C0C0F542306E
:1053E000510509F446C04830510509F446C09CB542
:1053F00020913C05922B9CBD90913B05992319F07F
:105400009DB591609DBD80939A01E82FE295EF7064
:10541000F0E031A1282F2F7081E090E001C0880FCB
:105420002A95EAF7382B31A392A18095892382A38C
:1054300081E0089590E290933C05BACF98609093F4
:105440003C05C1CF9C60FBCF440F551FBECF4034FD
:10545000510549F04038510541F04032510539F6C7
:1054600021E020933B05926001C0936090933C053E
:10547000BECF91E090933B05BACF21E020933B054E
:105480009160F4CF80E00895CF93DF938EBD0E94AA
:105490006D17EC010DB407FE05C08EB590E0DF91ED
:1054A000CF9108950E946D178C1B9D0B843691053A
:1054B00088F38EEF9FEFF3CFCF93DF931EBC0E9454
:1054C0006D17EC010DB407FE05C08EB590E0DF91BD
:1054D000CF9108950E946D178C1B9D0B843691050A
:1054E00088F38EEF9FEFF3CF80919A018F3F29F1E0
:1054F000E82FE295EF70F0E041A18F7021E030E0FD
:10550000B90102C0660F771F8A95E2F7CB01942F8D
:10551000982B91A392A1892B82A38FEF80939A015C
:105520008DB58E7F8DBD9CB580913C05809589237E
:105530008CBD10923C0510923B0508951092B90065
:105540008CE08093B8000895B0E0A0E0EAEAFAE2C7
:105550000C94612DB82EEB010E946D176C01EE24A6
:10556000E394F12CC431D10560F025E0E22EF12C5A
:10557000CF3FDC0731F0CE0164E170E00E94462DA0
:105580007B0184EAA82E94E8992E1092BC00A09288
:10559000BC000E946D178C018091BC0087FF0DC07C
:1055A0008091B900887F8830F9F08091B900887FB8
:1055B0008031D1F00FEF1FEF08C0C8010E945E17C5
:1055C000E816F90648F70EEF1FEFCF3FDC07E9F2C8
:1055D000C6010E945E17C817D907B8F6C801CDB733
:1055E000DEB7EBE00C947D2DB092BB009092BC0036
:1055F0000E946D178C018091BC0087FF0AC08091CA
:10560000B900887F883111F08034A1F610E000E005
:10561000E5CFC8010E945E17E816F90660F7D3CF00
:105620000F931F93CF93DF93EB018093BB0084E82C
:105630008093BC000E946D178C018091BC0087FF95
:1056400011C02091B900287F81E090E0283211F448
:1056500090E080E0919581959109DF91CF911F9124
:105660000F910895CF3FDC0741F3C8010E945E17F8
:10567000C817D90710F78EEF9FEFEFCFB0E0A0E08B
:10568000E4E4FBE20C94642D6B018A017901B90119
:105690000E94A42AE6010C0D1D1DC017D10711F0B0
:1056A00097FF08C024E92093BC00CDB7DEB7E8E03F
:1056B0000C94802DB70189910E94102BEECFB0E0A1
:1056C000A0E0E5E6FBE20C94642DC62F6A017901A7
:1056D000B8010E94A42A97FD0CC0B8018C2F0E942B
:1056E000102BE601EC0CFD1CCE15DF0511F097FF29
:1056F00008C024E92093BC00CDB7DEB7E8E00C94E5
:10570000802DB80189910E94102BEECF84E98093FF
:10571000BC0008958EE14A9B02C08150E1F74A9B8C
:10572000FECF08955A9880E28A95F1F75A9A089523
:10573000FC013BE03A95F1F798E020E080E031E0B1
:1057400040E14A95F1F7880F4A9B02C08160232708
:1057500042E04A95F1F7000040E14A95F1F7915097
:1057600079F790E19A95F1F799B132E03A95F1F72E
:10577000000040E14A95F1F792FB992790F99227B2
:105780002081920F90830895A1E0B0E0EAECFBE263
:105790000C94662D19828C017C01E60EF11C0E150D
:1057A0001F0541F481E09981911180E02196E6E0A6
:1057B0000C94822D0E948A2BCE0101960E94982B78
:1057C000F80181938F01EBCF529A5A9A089552981B
:1057D0005A9AEA9AE9E6F0E080818F7C8083089506
:1057E0006150770B91E001C0990F6A95EAF720E0CC
:1057F00031E0911108C0222391F05A9A80E28A95F3
:10580000F1F75A980895492F482339F05A9A2327D7
:1058100040E24A95F1F79695ECCF5A98F9CF5A980D
:10582000EDCFFF920F931F93CF93DF93EC018C0189
:10583000060F111DC017D10729F4CDB7DEB7E5E07B
:105840000C94832DF9900E94922B68E08F2D0E947A
:10585000F02BF0CF1F920F920FB60F9211240F93DF
:105860001F932F933F934F935F936F937F938F93E8
:105870009F93AF93BF93EF93FF93CF93DF930F92D9
:10588000CDB7DEB719820E948A2BCE0101960E9405
:10589000982B082F069506950695282F229525709A
:1058A000902F9570290F922F937026952695920F21
:1058B000982797708981982B09F05CC00C3008F00C
:1058C00059C080E18A95F1F75A9A529A82E08A95F6
:1058D000F1F700C05A9888E0089F80011124D80190
:1058E000AF5FBE4F1696ED91FC9117973097A9F0D8
:1058F00060919B0170919C0114962D913C9115979C
:10590000260F371F11968D919C911297680F791F62
:1059100013964C9113978C910995F801EF5FFE4F08
:105920006381662351F020919B0130919C01848119
:105930009581820F931F0E94112C0E94922B80E16F
:105940008A95F1F75A9852985A9A80E18A95F1F718
:10595000F801EF5FFE4F6081662351F020919B01BB
:1059600030919C0181819281820F931F0E94C42BF0
:105970000E948A2B0F90DF91CF91FF91EF91BF9101
:10598000AF919F918F917F916F915F914F913F91D7
:105990002F911F910F910F900FBE0F901F90189590
:1059A0000F931F93CF93DF93EC010C970CF04CC037
:1059B000F894529A5A9885E08A95F1F700009C2F46
:1059C000969595708C2F8570980F892F837096957A
:1059D000969523E0CC0FDD1F2A95E1F7980F8E01F5
:1059E000092B0E94922B00C068E0802F0E94F02BB0
:1059F00080E18A95F1F752985A9A4A9B1EC087E037
:105A000090E04A991CC0FE01EF5FFE4F6381662360
:105A1000F9F020919B0130919C0184819581820F46
:105A2000931F0E94C42B811113C0529A5A9A7894E2
:105A3000DF91CF911F910F91089500C0DECF0197A4
:105A400029F4529A5A9A789480E0F2CF00C0D9CFC4
:105A50000E948A2B80E28A95F1F75A98529A80E147
:105A60008A95F1F7CF5FDE4F6881662351F0209170
:105A70009B0130919C0189819A81820F931F0E9422
:105A8000112C0E94922B789481E0D2CFAA1BBB1BD1
:105A900051E107C0AA1FBB1FA617B70710F0A61B2E
:105AA000B70B881F991F5A95A9F780959095BC014F
:105AB000CD0108952F923F924F925F926F927F9205
:105AC0008F929F92AF92BF92CF92DF92EF92FF920E
:105AD0000F931F93CF93DF93CDB7DEB7CA1BDB0BBA
